:0A00000038C0FECFFDCFFCCFFBCFD0
:10000A00FACF84C0F8CFF7CFF6CFF5CF5CC0F3CFE5
:10001A00F2CFF1CFF0CFEFCFEECFEDCFECCFEBCFEA
:10002A001027E80364000A00010000100001100014
:10003A000100000052415A4F475245560025632598
:10004A00633A256325633A2563256320543D256376
:10005A00256325632043000080C0010002003C00A4
:10006A0002000C0162000000F894EE27ECBBF1E0FC
:10007A00FBBFEBBFE5BFF8E1F1BDE1BD8DE0A2E05A
:10008A00BB27ED938A95E9F780E092E0A0E6ED932D
:10009A000197E9F7E4E6F0E085919591009761F020
:1000AA00A591B59105901590BF01F00105900D92AB
:1000BA000197E1F7FB01F0CFEFE5EDBFE2E0EEBF1C
:1000CA00C0EED0E053C0EA93FA93EFB7EA93C3D3F2
:1000DA00F8941BB10CB1E12FEC7189F4E52D53941E
:1000EA00F0E0E052FF4F0083E8E0E51509F45524FB
:1000FA007394E8E0E71519F47724689420F8789463
:10010A00B4D3E991EFBFF991E9911895AA93EA93CB
:10011A00EFB7EA93F894DED2E091EB00EF5FE09359
:10012A00EB00A091EB00AC3341F4E091EA00EF5F01
:10013A00E093EA00E0E0E093EB00A091EA00AC3340
:10014A0041F4E091E900EF5FE093E900E0E0E09339
:10015A00EA00A091E900A83119F4E0E0E093E9008F
:10016A007894E991EFBFE991A9911895E0E0EBBB8A
:10017A00EFEFEABBE0E0E8BBE7BBEFEFE5BBE0E0AF
:10018A00E4BBEFBDE5E0EEBDA5D2E0E0E7BDE6BD2C
:10019A00EEE1EBBDE5E8EABDE0E0E9BDE8BDE0E19E
:1001AA00E9BFE0E0EBB9E8E1EAB9E6E8E0BDE0E0A2
:1001BA00E0BDECE0E9B9E0E1EA934BD278944ED0A5
:1001CA00E093E800E091E800EF5FE093E80086D270
:1001DA008AD2EEE3F0E08CD280E088D12496ECEF6C
:1001EA00F0E086D2E7E4F0E083D2A091E90083D27E
:1001FA00A091E9008CD2A091EA007DD2A091EA00F8
:10020A0086D2A091EB0077D2A091EB0080D2A09188
:10021A00E800B0E0E4E6F0E0ECD2DF01EAE0F0E08A
:10022A00EDD2F096CED20ED3A091E80064D2A0917E
:10023A00E8006DD284E25AD1A896C9D170D26FD2A1
:10024A00B9D151D2E8D16BD2E1E0EA93B3D1ECEF64
:10025A00F0E04ED2E0D142D2B2CFFFCF5F9BFECFC9
:10026A00ECB10895F8D25ED21296E4D23097F1F04A
:10027A0059D25BD28F01309761F00230E0E01E075D
:10028A00A0F0F80131978F01AA81BB811496ED93F2
:10029A00FC9348D212964CD23197AC81A08342D2B9
:1002AA00C9D2FF2312F03ED243D205C03BD2EFEFB0
:1002BA00FFEFED93FC93D6D2259608952697C7D2E1
:1002CA0010E0AC85BD85E0E0F0E0ED93FC93EA89AF
:1002DA00FB893196EA8BFB8B3197E4912E2FE03024
:1002EA0009F4FEC0E12FE03031F4253211F411E0B7
:1002FA0001C024D2F4C0E130A1F4253211F41ED297
:10030A00EDC012E040E000E02D3211F401E0E7C058
:10031A002B3211F44BE2E3C0203211F440E2DFC089
:10032A0002C0E23039F450E013E0203311F40068DF
:10033A00D6C003C0E33009F0D2C0203310F02A330C
:10034A0008F007C0AAE05A9F502DE22FE0535E0F33
:10035A00C6C0E22FE33639F4F9D1FBD1F7D1A48133
:10036A00AA93FBD1BBC0E33731F4FED1FFD101D24E
:10037A009CD11E2F08C0E03751F4F6D1F7D1F9D13C
:10038A009ED11E2F086002600F7730E02EC0E4363F
:10039A0011F0E93611F4046002C0E53729F4EAE203
:1003AA00F0E0EAD115E00BC0E83511F4086003C0AB
:1003BA00E83709F093C0E4E3F0E0DED114E002FF8D
:1003CA0011C0D2D1D3D1DBD1AB85AA232AF4EA85D5
:1003DA00FB85F3D1D4D14DE2403011F01F5F01C04B
:1003EA000B7F03C0C1D1C2D1CAD100FD10C01517FD
:1003FA0070F407FF08C002FF04C00B7F242F1150BE
:10040A0001C020E301C020E299D15150F0CF312F31
:10041A0001FF15C0303091F003FF05C0EE81FF8166
:10042A002591AAD105C0AE81BF812D91AE83BF832C
:10043A0085D1503009F051503150ECCF46C020E3FD
:10044A00EE81FF81FBD1E887F987EE81FF81329641
:10045A0093D1E885F985AA85BB85AE17BF0748F011
:10046A002F5FA885B985EA85FB85EA1BFB0B87D137
:10047A00F0CF2A3328F003FF02C0295F01C0295DAB
:10048A0004FD19C0213320F4A885B985119709F410
:10049A0009C0531710F000FF01C011C020E207FF86
:1004AA000AC020E3006102FF06C00B7F4A9355D1C0
:1004BA00503009F0515042D1503009F0515031506A
:1004CA00A885B985129708F0BACF00FF07C0503047
:1004DA0029F05150E0E2EA9340D1F9CF10E0F7CE8B
:1004EA00AC85BD85A7D1BAD164960895FF92F82E3E
:1004FA002697AFD147D1309719F4EFEFFFEF1DC020
:10050A00DE01169656D18D013DD136D1E0E0E8875D
:10051A00E987DE011A964DD18DD1EAD01A930A9352
:10052A00E7E3F1E0E5D0FE013A96E2D0C7DE9F01AB
:10053A00AE81BF81E0E0EC93F90192D12A96FF9057
:10054A000895FFE0FA95F1F70895A7B3AF70A7BB36
:10055A00C19AC098F6DFC29AF4DFA6B3C298F1DF57
:10056A00C29AEFDFC298A7FDF5CF0895A07FAB2B03
:10057A00A8BBC29AE6DFC298E4DF0895C198A7B380
:10058A00A76FA7BBB8B3BF70A881F0DFA881A295F7
:10059A00EDDFC19A88C0C29AD4DFE6B3C298D1DF30
:1005AA00E07F0895CEDFF7DFAE2FF5DFC198E29541
:1005BA00EA2B0895CADFE881F0E0E45FFE4FE081AC
:1005CA00A981EA0FE4D06980988022960895BDDF58
:1005DA00E2E0DDD0BADFECE0DAD0B7DFE1E0D7D095
:1005EA00E0E09E2E6E2E0895EF93FF93A881689403
:1005FA00AA3019F0E894681428F0939490D09A924B
:10060A00D9DF36F06394A1DFC09AA881AA93B6DF36
:10061A00FF91EF9148C01A93A981BA81ED91A983FC
:10062A00BA831E2FE03019F01A93DEDFF5CF188156
:10063A0023960895AA27BB271197F1F70895C19821
:10064A00A7B3A76FA7BBB8B3BF70A8818FDFC19A42
:10065A002AC0C298C0988880E881E058E0930E01C9
:10066A00E881E054E0930F0194D093D092D0E2DF76
:10067A00E0E2EA93E4DFDEDFE8E289D0DBDFE4E010
:10068A0086D0D8DFE5E883D0D5DFA7B3AF70A7BBA4
:10069A00C19A88DFE53011F0E0E005C056DFE6E0F8
:1006AA0076D095DFE1E021960895A991B991EE27D8
:1006BA00FF276D91662311F03196FBCF0895AA2783
:1006CA00BB27E991F9910590002011F01196FBCF13
:1006DA00FD010895E0E0EDBDECBD0895E5E0F0E030
:1006EA00FA93EA935AC0ECEEF0E0FA93EA9308958B
:1006FA00FA93EA930895B0E0EAE0F0E07AD0DF01F5
:10070A00EAE0F0E07BD0F0965CD09CD00895BB275D
:10071A00EAE0F0E073D0F09654D094D00895E0E087
:10072A00EA930895AA81BB810895149683D0089507
:10073A00ED91FD913196FE93EE9308952A93ED85FE
:10074A00FE85D6DFE989FA8909950895E889F98944
:10075A0008953497E88BF98B0895ED85FE85C8DFF7
:10076A00E989FA8909950895F1DFF3CFA889B9894A
:10077A00DCCFEE83FF83BCCFEE83FF830895EA8745
:10078A00FB870895DE011C9614D054D00895EA938D
:10079A00F5CE50DFE0E3EA9352CFE991F991309632
:1007AA0039F080ED97E00197F1F7A8953197C9F7ED
:1007BA0008950024AF0DB01D0895F195E195F0401C
:1007CA0008956F2F660F660B762F08950024112463
:1007DA0090E1AA0FBB1F001C111C0E1A1F0A18F465
:1007EA000E0E1F1E01C0A1609A9599F7FD01D00156
:1007FA00089512D0EBDF0EF4E0DF0895E894B7FF16
:10080A0004C0A095B09511966894F7FDD6DFDEDF97
:10081A00FD010EF4D2DF0895E894F7FF02C0CDDFA0
:10082A006894B7FF06C0A095B095119600F8039496
:10083A0000FA0895ED91FC91119708950590F491AD
:10084A00E02D08957A936A93FA93EA9308955A9356
:10085A004A933A932A931A930A9308955D814C8195
:10086A003B812A8119810881089509911991089576
:00000001FF
