:0800000025C0FECFFDCFFCCFAF
:10000800FBCFFACFF9CFF8CFF7CFF6CFF5CFF4CFB4
:10001800F3CFF2CF63C0F0CFEFCFEECFEDCF102705
:10002800E80364000A00010000100001100001004C
:100038000000000064002569002300000600040099
:1000480038000000F894EE27ECBBF1E0FBBFEBBFF3
:10005800E5BFF8E1F1BDE1BD8DE0A2E0BB27ED937E
:100068008A95E9F780E094E0A0E6ED930197E9F737
:10007800E4E4F0E085919591009761F0A591B59140
:1000880005901590BF01F00105900D920197E1F7D9
:10009800FB01F0CFEFE5EDBFE4E0EEBFC0E6D1E055
:1000A8002BC0ECE3E8BBE3E0E7BBEEE1E5BBE0E354
:1000B800E4BBE0E0E2BBE1BBEBB9E8E1EAB9E6E8C2
:1000C800E0BDE0E0E0BDECE0E9B9E0E8E8B9E0E097
:1000D800E0BFE7B9EEE8E6B97894089544B055B0C2
:1000E8001895E881E7B9E5B7EF78E069E5BF889545
:1000F800EF77E5BFF20129C0D4DFE4E6F0E07DD177
:10010800A8D1E0E0EA93EDDF2F01E8EEF3E0E4198F
:10011800F509F695E7953F01EEE3F0E06ED1F301BE
:1001280066277727B2D184E034D12696E1E4F0E05F
:1001380064D180E02ED12296F40131964F01DDCFB3
:10014800FFCF5D9BFECFE881ECB921960895EA8147
:10015800EA93F7DFA881B981ED91FD913196FE937D
:10016800EE9323960895269795D110E0AC85BD852A
:10017800E0E0F0E0ED93FC93EA89FB893196EA8BA5
:10018800FB8B3197E4912E2FE03009F4FCC0E12F6E
:10019800E03031F4253211F411E001C031D1F2C060
:1001A800E130A1F4253211F42BD1EBC012E040E08C
:1001B80000E02D3211F401E0E5C02B3211F44BE2DE
:1001C800E1C0203211F440E2DDC002C0E23039F46F
:1001D80050E013E0203311F40068D4C003C0E330CA
:1001E80009F0D0C0203310F02A3308F007C0AAE085
:1001F8005A9F502DE22FE0535E0FC4C0E22FE33622
:1002080039F406D108D104D1A481AA9308D1B9C080
:10021800E33729F40BD10CD1DBD01E2F07C0E03710
:1002280049F404D105D1DED01E2F086002600F7793
:1002380030E02DC0E43611F0E93611F4046002C054
:10024800E53729F4E6E2F0E0FAD015E00BC0E8352E
:1002580011F4086003C0E83709F093C0E0E3F0E068
:10026800EED014E002FF11C0E1D0ECD0AB85AA2398
:1002780032F4EA85FB85FDD0EA87FB874DE2403002
:1002880011F01F5F01C00B7F02C0D0D0DBD000FD92
:1002980010C0151770F407FF08C002FF04C00B7FD9
:1002A800242F115001C020E301C020E2A9D05150F1
:1002B800F0CF312F01FF15C0303091F003FF05C09A
:1002C800EE81FF812591BBD005C0AE81BF812D9104
:1002D800AE83BF8395D0503009F051503150ECCFE8
:1002E80047C020E3EE81FF81CCD0E887F987EE8113
:1002F800FF813296A4D0E885F985AA85BB85AE171B
:10030800BF0750F02F5FA885B985EA85FB85EA1BF2
:10031800FB0BEA87FB87EFCF2A3328F003FF02C0E5
:10032800295F01C0295D04FD19C0213320F4A88587
:10033800B985119709F409C0531710F000FF01C0DF
:1003480011C020E207FF0AC020E3006102FF06C0D7
:100358000B7F4A9364D0503009F0515051D050303F
:1003680009F051503150A885B985129708F0B9CFD6
:1003780000FF07C0503029F05150E0E2EA934FD017
:10038800F9CF10E0F9CEAC85BD8577D08AD06496D8
:100398000895FF92F82E269781D0DE01149665D035
:1003A8008D01E0E0EC83ED83EE83EF83DE011896A8
:1003B8005CD063D022D01A930A93EBEAF0E01DD008
:1003C800FE0138961AD0CFDE70D02896FF90089597
:1003D800A991B991EE27FF276D91662311F0319607
:1003E800FBCF0895AA27BB27E991F9910590002032
:1003F80011F01196FBCFFD010895FA93EA93089541
:100408002A93ED85FE85F9DFE989FA89099508952A
:10041800E889F98908953497E88BF98B0895ED8573
:10042800FE85EBDFE989FA8909950895F1DFF3CFB5
:10043800A889B989149621D0EE83FF83DECFEE8395
:10044800FF830895A889B989149617D0EA87FB878E
:100458000895E991F991309639F080ED97E0019788
:10046800F1F7A8953197C9F708950024AF0DB01D8D
:100478000895F195E195F0400895ED91FC9111975B
:1004880008950590F491E02D08957A936A93FA936C
:10049800EA9308955A934A933A932A931A930A939C
:1004A80008955D814C813B812A81198108810895D5
:00000001FF
