:0200000038C006
:10000200FECFFDCFFCCFFBCFFACF84C0F8CFF7CF26
:10001200F6CFF5CF5CC0F3CFF2CFF1CFF0CFEFCF79
:10002200EECFEDCFECCFEBCF1027E80364000A0050
:100032000100001000011000010080C000005241C8
:100042005A4F4752455600256325633A2563256377
:100052003A2563256320543D2563256325632043A8
:10006200000002000C013C00020010013E000000F2
:10007200F894EE27ECBBF1E0FBBFEBBFE5BFF8E184
:10008200F1BDE1BD8DE0A2E0BB27ED938A95E9F7D2
:1000920080E092E0A0E6ED930197E9F7E4E6F0E074
:1000A20085919591009761F0A591B5910590159074
:1000B200BF01F00105900D920197E1F7FB01F0CF2E
:1000C200EFE5EDBFE2E0EEBFC0EED0E053C0EA9351
:1000D200FA93EFB7EA938FD3F8941BB10CB1E12FE7
:1000E200EC7189F4E52D5394F9D2E052FF4F00836D
:1000F200E8E0E51509F455247394E8E0E71519F4EE
:100102007724689420F8789480D3E991EFBFF9912D
:10011200E9911895AA93EA93EFB7EA93F894E0D29B
:10012200E091EB00EF5FE093EB00A091EB00AC33CA
:1001320041F4E091EA00EF5FE093EA00E0E0E0934F
:10014200EB00A091EA00AC3341F4E091E900EF5FEB
:10015200E093E900E0E0E093EA00A091E900A83131
:1001620019F4E0E0E093E9007894E991EFBFE991B6
:10017200A9911895E0E0EBBBEFEFEABBE0E0E8BB4A
:10018200E7BBEFEFE5BBE0E0E4BBEFBDE5E0EEBDD2
:10019200A7D2E0E0E7BDE6BDEEE1EBBDE5E8EABDF2
:1001A200E0E0E9BDE8BDE0E1E9BFE0E0EBB9E8E1AC
:1001B200EAB9E6E8E0BDE0E0E0BDECE0E9B9E0E1A3
:1001C200EA934BD27894E091E800EF5FE093E80085
:1001D2008BD28FD2E0E4F0E091D280E08CD12496F1
:1001E200ECEFF0E08BD2E9E4F0E088D2A091E900F4
:1001F20088D2A091E90090D2A091EA0082D2A09187
:10020200EA008AD2A091EB007CD2A091EB0084D2CA
:10021200A091E800E4E6CDD2AE2F7ED2A091E80014
:1002220070D2A091E80078D284E265D1A896D1D1AB
:100232007BD27AD2BDD15DD2F1D176D2E1E0EA931E
:10024200B7D1ECEFF0E05AD2E9D14ED2BCCFFFCF1A
:100252005D9BFECFE881ECB921960895CCD2AC81AA
:10026200BD81B8D23097D1F0AA81BB81B3D28F01C0
:10027200309749F00230E0E01E0778F0F80131973C
:100282008F01ED93FC93AC81BD81ED91FD9131968F
:10029200FE93EE933197AE81A08303C0EE81EA9381
:1002A200D7DFB0D2279608952697A1D210E0EA8927
:1002B200FB893196EA8BFB8B3197E4912E2FE0304C
:1002C20009F416C1E12F0AD2309731F4253211F424
:1002D20011E001C02CD20BC1E130A0E0FA07A1F479
:1002E200253211F424D202C112E040E000E02D32A6
:1002F20011F401E0FCC02B3211F44BE2F8C02032C1
:1003020011F440E2F4C004C0E230A0E0FA0739F48C
:1003120050E013E0203311F40068E9C005C0E33077
:10032200A0E0FA0709F0E3C0203310F02A3308F006
:100332000AC0A52FEAE0EA9FF0015E2FE22FE05308
:10034200CDD15E0FD4C0E22FC9D1E336A0E0FA07C7
:1003520021F4F5D1EC91FAD1C9C0E337A0E0FA0754
:1003620029F4EDD1FBD1A5D11E2F09C0E037A0E0C1
:10037200FA0749F4E4D1F2D1A6D11E2F0860026037
:100382000F7730E039C0E436A0E0FA0721F0E93611
:10039200A0E0FA0711F4046004C0E537A0E0FA0710
:1003A20029F4EAE2F0E0DED115E00FC0E835A0E082
:1003B200FA0711F4086005C0E837A0E0FA0709F06F
:1003C20095C0E4E3F0E0CED114E002FF12C0B7D151
:1003D20001D2CBD1AA85BB8510972CF4EA85FB8587
:1003E200E4D1C3D14DE2403011F01F5F01C00B7F59
:1003F20003C0A5D1EFD1B9D100FD10C0151770F41B
:1004020007FF08C002FF04C00B7F242F115001C058
:1004120020E301C020E28BD15150F0CF312F01FFF8
:1004220018C03030A9F003FF07C0EE81FF8131967A
:1004320099D13197E49105C0AE81BF81ED91AE8330
:10044200BF83EA9395D1503009F051503150E9CF32
:1004520045C020E3EE81FF81329684D13297BED12E
:10046200E887F987E885F985AA85BB85AE17BF07B6
:1004720048F02F5FA885B985EA85FB85EA1BFB0B4F
:1004820074D1F0CF2A3328F003FF02C0295F01C0E4
:10049200295D04FD19C0213320F4A885B98511977F
:1004A20009F409C0531710F000FF01C011C020E287
:1004B20007FF0AC020E3006102FF06C00B7F4A93D8
:1004C20057D1503009F0515032D1503009F05150CB
:1004D2003150A885B985129708F0BBCF00FF06C03E
:1004E200503021F05150E0E231D1FACF10E0DFCEAE
:1004F20085D164960895FF92F82E22977CD1DE0171
:1005020050D18D01DE0116964CD164D1EA83FB8372
:10051200DE01149646D15ED1F1D01A930A93FE0100
:100522003696ECD0E0E0F0E0E9D0BEDEAA81BB81F5
:10053200E0E0EC9367D12496FF900895FFE0FA95EE
:10054200F1F70895A7B3AF70A7BBC19AC098F6DFC1
:10055200C29AF4DFA6B3C298F1DFC29AEFDFC29863
:10056200A7FDF5CF0895A07FAB2BA8BBC29AE6DF0B
:10057200C298E4DF0895C198A7B3A76FA7BBB8B329
:10058200BF70A881F0DFA881A295EDDFC19A219604
:100592000895C29AD3DFE6B3C298D0DFE07F089510
:1005A200CDDFF7DFAE2FF5DFC198E295EA2B089594
:1005B200C9DFE88193D0E45FFE4FE081AE2FE9818D
:1005C2008DD0B0E0EA0FFB1FDAD0698098802296C6
:1005D2000895B8DFE2E0D3D0B5DFECE0D0D0B2DFEF
:1005E200E1E0CDD0E0E09E2E6E2E0895EF93FF93D2
:1005F200A8816894AA3021F0E8946394861428F4C0
:10060200939492D09A92D4DF2EF09CDFC09AA88164
:10061200AA93B1DFFF91EF91219608951A93A981D0
:10062200BA81ED91A983BA831E2FE03019F01A9393
:10063200DDDFF5CF188123960895AA27BB271197EE
:10064200F1F70895C198A7B3A76FA7BBB8B3BF705E
:10065200A88189DFC19A21960895C298C09888809E
:10066200E881E058E0930E01E881E054E0930F0145
:1006720088D087D086D0E1DFE0E2EA93E3DFDDDFF6
:10068200E8E27DD0DADFE4E07AD0D7DFE5E877D0C0
:10069200D4DFA7B3AF70A7BBC19A82DFE53011F0F8
:1006A200E0E005C04FDFE6E06AD093DFE1E02196AB
:1006B2000895A991B991EE27FF276D91662311F054
:1006C2003196FBCF0895AA27BB27E991F9910590AE
:1006D200002011F01196FBCFFD010895F0E008957E
:1006E200E0E0EDBDECBD0895E5E0F0E0FA93EA93B9
:1006F2004CC0ECEEF0E0FA93EA930895FA93EA9391
:100702000895EAE056D0AE2FEAE061D0E05DFF271F
:100712006627772767D00895EAE059D0E05DFF2782
:10072200662777275FD00895E0E0EA9308952A9339
:10073200EF85F889E3DFFE013F96E0DF8FCDA889E0
:10074200B9891497A88BB98B14960895EA93EF850B
:10075200F889D4DFFE013F96D1DF80CD3BD0EE8316
:10076200FF83CCCFEE83FF830895EA87FB8708954A
:10077200EF85F889C3DFFE013F96C0DF6FCDEA93B4
:10078200FACE5BDFE0E3EA935DCFE991F99130962F
:1007920039F080ED97E00197F1F7A8953197C9F705
:1007A20008950024AF0DB01D0895F195E195F04034
:1007B2000895002498E0AA0F001C0E1A10F40E0EE1
:1007C20001C0A1609A95B9F7EA2FA02D0895F1DF33
:1007D200EA2F0895ED91FC91119708950590F491F7
:1007E200E02D08957A936A93FA93EA9308955A93BF
:1007F2004A933A932A931A930A9308955D814C81FE
:100802003B812A81198108810895099119910895DE
:00000001FF
