:0C0000001CC0FECFFDCFFCCFFBCFFACF21
:10000C00F9CFF8CFF7CFF6CFF5CFB2C0F3CFF2CF11
:10001C00F1CFF0CFEFCFEECFEDCFECCFEBCF7561D3
:10002C0072743A0000000100050030000000F894E2
:10003C00EE27ECBBF1E0FBBFEBBFE5BFF8E1F1BD98
:10004C00E1BD8DE0A2E0BB27ED938A95E9F780E056
:10005C0092E0A0E6ED930197E9F7E2E3F0E08591F9
:10006C009591009761F0A591B59105901590BF0100
:10007C00F00105900D920197E1F7FB01F0CFEFE550
:10008C00EDBFE2E0EEBFC0EED0E000C05CD02ED001
:10009C007894EAE2F0E0FA93EA9343D063D01E2F0F
:1000AC00103069F0E6E866D01A931BD0EFE4EA93BF
:1000BC0053D0EBE6EA9350D0E0E2EA934DD0EECF8A
:1000CC00FFCFE881E5BBC49A85E08A95F1F7C49827
:1000DC008BE68A95F1F744C0C298E881EA93F1DF88
:1000EC003FC0C29AE881EA93ECDF3AC0EFEFE4BB81
:1000FC00E5BBE7BBE8B3EC61E8BBC398E8E2F0E032
:10010C00FA93EA9339D0E8E335D0ECE033D0E1E070
:10011C0031D0E2E0F0E0FA93EA932ED0E6E02AD078
:10012C0008951A93C29AE981FA81E491E03041F082
:10013C00E981FA811591E983FA831A93C2DFF3CF2F
:10014C00188123960895E0E0E0BDE3E3E9B9E8E91E
:10015C00EAB9E6E8E0BD08955D9BFECFE881ECB915
:10016C00219608951A93152D5524E12F1991089570
:10017C005CB01895EA93B0CFE991F991309639F0CB
:10018C0080ED97E00197F1F7A8953197C9F708959D
:00000001FF
