:0200000024C01A
:10000200FECFFDCFFCCFFBCFFACFF9CFF8CFF7CFA2
:10001200F6CFF5CFAFC0F3CF83C0F1CFF0CFEFCFA4
:10002200EECFEDCFECCFEBCF2074657374202D2093
:100032004F4B20000000000000000C00E0002A00EE
:100042000600040036000000F894EE27ECBBF1E055
:10005200FBBFEBBFE5BFF8E1F1BDE1BD8DE0A2E082
:10006200BB27ED938A95E9F780E092E0A0E6ED9355
:100072000197E9F7ECE3F0E085919591009761F043
:10008200A591B59105901590BF01F00105900D92D3
:100092000197E1F7FB01F0CFEFE5EDBFE2E0EEBF44
:1000A200C0EED0E000C00CD0789450D01E2F143790
:1000B20029F4E0EEF0E0FA93EA9323D0F6CFFFCFF3
:1000C200E0E0E0BDE3E3E9B9E8EDEAB9E6E8E0BD86
:1000D20008955D9B03C0E0E0E71509F003C0E881E5
:1000E200ECB90DC0E0E17E1650F4E52D5DD0A8819B
:1000F200A08373945394E0E1E51509F45524219605
:1001020008951A93A981BA81EC91E03031F01D91E2
:10011200A983BA831A93DDDFF5CF18812396089558
:10012200EA93FA93EFB7EA93E0E0E71550F4E42D8F
:100132003BD0E081ECB97A944394E0E1E41509F410
:100142004424E991EFBFF991E99118951A93E0E0FF
:10015200E81568F4E92DF0E0E450FF4F10818A942D
:100162009394E0E1E91509F49924E12F01C0E0E05C
:1001720019910895AA93BA93EA93EFB7EA93E0E14B
:100182008E1660F4A62DB0E0A450BF4FECB1EC93F4
:100192006394E0E1E61509F466248394E991EFBFE4
:1001A200E991B991A9911895F0E0E451FF4F0895B2
:00000001FF
