:020000020000FC
:100000002DC118951895189518951895C1C0189573
:100010001895189518950FC061C0189518951895E2
:1000200018951895189548656C6C6F21000D0A009D
:100030002000A0000000AA939A938A93FA93EA936F
:100040003A922A921A920A927A936A935A934A930C
:100050003A932A931A930A93AFB79CB18091B00058
:100060001091B100082F011B003158F440E1082F16
:1000700003D150E0FA01E056FF4F908383958093BF
:10008000B000AFBF099119912991399149915991C6
:10009000699179910990199029903990E991F99194
:1000A00089919991A99118958A938091B1000091B5
:1000B000B0008017E1F340E1082FDED050E0FA01F4
:1000C000E056FF4F008183958093B1008991089598
:1000D0000091B0001091B100011B08959A938A938A
:1000E000FA93EA933A922A921A920A927A936A932C
:1000F0005A934A933A932A931A930A939FB78091FB
:10010000BB0048E0082FB8D050E0FA01EE54FF4F92
:1001100000810CB983958093BB000091BA008017D1
:1001200009F455989FBF09911991299139914991E5
:100130005991699179910990199029903990E99193
:10014000F991899199911895A5D0902F8091BA0035
:100150001091BB00082F011B0830D0F748E0082F92
:100160008BD050E0FA01EE54FF4F9083839580933B
:10017000BA00559AE2E091C08DD0C80101C0E4DF19
:10018000FC0114910196012F1123C9F7E2E085C00B
:10019000FA93EA934A933A932A931A930A934FB79E
:1001A000ECEBF0E000811181228133810F5F1F4F62
:1001B0002F4F3F4F00831183228333834FBF099119
:1001C0001991299139914991E991F991189509E18C
:1001D00009B908E90AB909E00EBD01E109BF00E863
:1001E0001EE31BBD0ABD00E008BB0FEF07BB00E02C
:1001F00002BB0FEF01BB01E0089540E050E060E07A
:1002000070E004C04F5F5F4F6F4F7F4F4017510743
:1002100062077307B8F308957894ECEBF0E000817F
:1002200011812281338154DF002311F03DDF8CDF07
:1002300000E015E32CE030E0E0DF06E210E09CDFB8
:100240000DE210E099DFEFCF08952297C80188836F
:1002500099839E0101E0F8DFFACFF7CF0FE90DBFD8
:1002600000E00EBFC0E8D0E0B2DF002309F02AD0E2
:10027000D3DF01D0F2CFF1CF0024E8E0EA9532F0ED
:10028000001F001C0416D0F3041AF8CF001F402DE5
:10029000009508959A938A93089599818881F0E052
:1002A000EC0FFD1FEF01089520E006D0E9F7089557
:1002B000259102D0E9F708952D9301501040202F89
:1002C000212B089580E390E0FC0105911491FC013D
:1002D0003296A591B491FC01349625913491422F28
:1002E000432B19F0F901E4DF01C0DEDF069610E0D0
:0802F0008633910748F30895DD
:0400000300000000F9
:00000001FF
