:10000000C3C0FECFFDCFFCCFFBCFFACF12C1F8CFDC
:10001000F7CFF6CFF5CFE7C0F3CFF2CFF1CFF0CFE8
:10002000EFCFEECFEDCFECCFEBCF73004B006900FD
:10003000410004001E000A0001000100C800E8039E
:1000400064001027E80364000A00010000100001AA
:1000500010000100804100004B6F7074696C6E7974
:100060006100762E312E30004D617820542072616F
:100070007A6F677265766100256325632563004D9D
:10008000696E20542072617A6F6772657661004DE7
:1000900061782054207261626F746961004D696EED
:1000A0002054207261626F74690054696D6520721A
:1000B00061626F74612C2063680054696D65207201
:1000C00061626F74612C206D696E0054696D6520EA
:1000D000736D6F6B652C2063680054696D652073C8
:1000E0006D6F6B652C206D696E0052415A4F4752FF
:1000F00045565061B76FB47065B300256325633A08
:10010000256325633A2563256320543D25632563D4
:1001100025632043005241424F544100534D4F4B01
:10012000450053544F50007777772E7878782E75A6
:1001300061000100E8002A000100E9002C00010034
:10014000EA002E000100EB0030000100EC0032005C
:100150000100ED0034000100EF0036000100F7005F
:1001600038000100F8003A00010007003C000200DE
:1001700008003E0001000600400002001901540082
:1001800002001D0156000000F894EE27ECBBF1E0E0
:10019000FBBFEBBFE5BFF8E1F1BDE1BD8DE0A2E043
:1001A000BB27ED938A95E9F780E092E0A0E6ED9316
:1001B0000197E9F7E2E3F1E085919591009761F00D
:1001C000A591B59105901590BF01F00105900D9294
:1001D0000197E1F7FB01F0CFEFE5EDBFE2E0EEBF05
:1001E000C0EED0E0D2C3EA93FA93EFB7EA93C3D755
:1001F000F8941BB10CB1E12FEC7109F013C0E52D9F
:1002000053946AD6E052FF4F0083E8E0E51509F009
:1002100001C055244394E8E0E41509F003C04424E8
:10022000689420F87894B1D7E991EFBFF991E991FA
:100230001895AA93EA93EFB7EA93F8944FD6E09112
:10024000F200EF5FE093F200E1504CD6AC3309F0DE
:1002500008C0E091F100EF5FE093F100E0E0E0938F
:10026000F20043D6AC3309F008C0E091F000EF5F34
:10027000E093F000E0E0E093F1003AD6A83109F015
:1002800003C0E0E0E093F0007894E991EFBFE991DA
:10029000A991189530D609F006C0E091E800EF5F0B
:1002A000E093E8003FC02ED609F006C0E091EA00D6
:1002B000EF5FE093EA0036C029D609F006C0E0916E
:1002C000E900EF5FE093E9002DC024D609F006C0F5
:1002D000E091EB00EF5FE093EB0024C01FD609F044
:1002E00006C0E091EC00EF5FE093EC001BC01AD673
:1002F00009F006C0E091ED00EF5FE093ED0012C061
:1003000015D609F006C0E091EE00EF5FE093EE0035
:1003100009C010D609F006C0E091EF00EF5FE0934E
:10032000EF0000C00895E7D509F006C0E091E800AD
:10033000E150E093E8003FC0E5D509F006C0E09148
:10034000EA00E150E093EA0036C0E0D509F006C0CB
:10035000E091E900E150E093E9002DC0DBD509F020
:1003600006C0E091EB00E150E093EB0024C0D6D54D
:1003700009F006C0E091EC00E150E093EC001BC0F6
:10038000D1D509F006C0E091ED00E150E093ED0019
:1003900012C0CCD509F006C0E091EE00E150E09328
:1003A000EE0009C0C7D509F006C0E091EF00E150AA
:1003B000E093EF0000C008959ED509F003C0ECE083
:1003C000BDD529C09FD509F003C0E5E1B7D523C04D
:1003D0009DD509F003C0E6E1B1D51DC09BD509F05C
:1003E00003C0EFE1ABD517C099D509F003C0E0E237
:1003F000A5D511C097D509F003C0E9E29FD50BC080
:1004000095D509F003C0EAE299D505C093D509F066
:1004100002C097D500C008956ED509F003C0EAE286
:100420008DD529C06FD509F002C08BD524C06ED5FB
:1004300009F003C0ECE082D51EC06CD509F003C002
:10044000E5E17CD518C06AD509F003C0E6E176D5B0
:1004500012C068D509F003C0EFE170D50CC066D5B5
:1004600009F003C0E0E26AD506C064D509F003C014
:10047000E9E264D500C008953ED509F002C063D515
:1004800023C040D509F002C05ED51EC03FD509F09B
:1004900002C059D519C03ED509F002C054D514C0C8
:1004A0003DD509F002C04FD50FC03CD509F002C0C0
:1004B0004AD50AC03BD509F002C045D505C03AD59A
:1004C00009F002C040D500C008953BD5E0E0E093BC
:1004D000F000E093F100E093F2000895989902C0D3
:1004E00034D5D8DE999902C030D596DF9A9902C0EA
:1004F0002CD519DF9B9902C028D55EDF9C9902C0DC
:1005000024D5BADF9D9902C020D5DFDF089549D4F4
:1005100021D520D535D421D56AD41CD5E1E0EA9384
:100520002FD420D564D4089522D509F00CC015D558
:10053000E8E5F0E023D516D5E2E6F0E01FD59A9283
:100540008A92E3D5D0C0EB30A0E0FA0709F010C0E2
:1005500004D5E8E6F0E012D505D516D5A091E8005F
:1005600018D5A091E80020D5A091E80028D5BBC0FF
:10057000C9D409F010C0F1D4EFE7F0E0FFD4F2D411
:1005800003D5A091EA0005D5A091EA000DD5A09170
:10059000EA0015D5A8C0BAD409F010C0DED4EFE83F
:1005A000F0E0ECD4DFD4F0D4A091E900F2D4A09133
:1005B000E900FAD4A091E90002D595C0ABD409F0C6
:1005C00010C0CBD4EDE9F0E0D9D4CCD4DDD4A091E7
:1005D000EB00DFD4A091EB00E7D4A091EB00EFD4C7
:1005E00082C09CD409F00DC0B8D4EAEAF0E0C6D4C9
:1005F000B9D4F0D4A091EC00D7D4A091EC00EFD402
:1006000072C090D409F00DC0A8D4EAEBF0E0B6D4E3
:10061000A9D4E0D4A091ED00C7D4A091ED00DFD41F
:1006200062C084D409F00DC098D4EBECF0E0A6D4FD
:1006300099D4D0D4A091EE00B7D4A091EE00CFD43D
:1006400052C078D409F00DC088D4EAEDF0E096D419
:1006500089D4C0D4A091EF00A7D4A091EF00BFD45B
:1006600042C0EC33A0E0FA0709F00AC076D4EAEE03
:10067000F0E084D477D4BED4C3D4CCD4D5D433C0A2
:10068000E634A0E0FA0709F00AC067D4E5E1F1E03A
:1006900075D468D4AFD4B4D4BDD4C6D424C0E035A6
:1006A000A0E0FA0709F00AC058D4ECE1F1E066D402
:1006B00059D4A0D4A5D4AED4B7D415C0D3D409F09E
:1006C0000AC04BD4E2E2F1E059D44CD493D498D48C
:1006D000A1D4AAD408C0E7E2F1E0C8D498D3EAE0F4
:1006E000F0E0C4D412D5089542D409F002C0C1D4B8
:1006F0001EC1EB30A0E0FA0709F014C0C3D409F022
:100700000BC0C3D409F008C0C3D409F005C0C3D4DA
:1007100009F002C0E0E001C0E1E0C0D409F001C08E
:10072000A8D405C1EFD309F014C0ACD409F00BC0B4
:10073000ACD409F008C0ACD409F005C0ACD409F0C1
:1007400002C0E0E001C0E1E0A9D409F001C091D409
:10075000EEC0DCD309F014C095D409F00BC095D4D9
:1007600009F008C095D409F005C095D409F002C07D
:10077000E0E001C0E1E092D409F001C07AD4D7C032
:10078000C9D309F014C07ED409F00BC07ED409F09F
:1007900008C07ED409F005C07ED409F002C0E0E0B4
:1007A00001C0E1E07BD409F001C063D4C0C0B6D37E
:1007B00009F014C067D409F00BC067D409F008C071
:1007C00067D409F005C067D409F002C0E0E001C0B9
:1007D000E1E064D409F001C04CD4A9C0A3D309F06E
:1007E00014C050D409F00BC050D409F008C050D444
:1007F00009F005C050D409F002C0E0E001C0E1E01A
:100800004DD409F001C035D492C090D309F014C082
:1008100039D409F00BC039D409F008C039D409F033
:1008200005C039D409F002C0E0E001C0E1E036D4EF
:1008300009F001C01ED47BC07DD309F014C022D4BE
:1008400009F00BC022D409F008C022D409F005C079
:1008500022D409F002C0E0E001C0E1E01FD409F0B9
:1008600001C007D464C0EC33A0E0FA0709F037C038
:10087000EBE0E03009F01DC0ECE0E03009F019C019
:10088000E5E1E03009F015C0E6E1E03009F011C023
:10089000EFE1E03009F00DC0E03009F00AC0E9E214
:1008A000E03009F006C0EAE2E03009F002C0E0E022
:1008B00001C0E1E0F3D309F007C0F7D3DC98DD987D
:1008C000DE98DF98F6D3DB98E091E800A091F30082
:1008D000AE1708F001C0EDD3E8D3DB9828C0E634AA
:1008E000A0E0FA0709F003C0E0D3DD9A20C0E035AC
:1008F000A0E0FA0709F003C0D8D3DD9A18C0B2D33C
:1009000009F002C0B6D313C0BDD309F00BC0BDD3EC
:1009100009F008C0BDD309F005C0BDD309F002C07D
:10092000E0E001C0E1E0BAD309F001C0A2D3E09158
:10093000F700E093F8000895E0E0EBBBEFEFEABBCF
:10094000E0E0E8BBE7BBEFEFE5BBE0E0E4BBEFBD19
:10095000E5E0EEBDC3D2E0E0E7BDE6BDEEE1EBBD14
:10096000E5E8EABDE0E0E9BDE8BDE0E1E9BFE0E0DF
:10097000EBB9E8E1EAB9E6E8E0BDE0E0E0BDECE0D3
:10098000E9B9E0E1EA9365D20895D6DFE1E0D6D295
:10099000CBDDBDDD9A928A92B8D3D3D2C5DDB7DD67
:1009A00078949CDDA1DEC0DDB2DDFBCFFFCF5F9B85
:1009B000FECFECB108955D9BFECFE881ECB92196A6
:1009C0000895D9D3AC81BD81C5D3309709F41FC038
:1009D000AA81BB81BFD38F01309709F001C00CC041
:1009E0000230E0E01E0708F411C0F80131978F01D2
:1009F000AA81BB81ED93FC93AC81BD81ED91FD910A
:100A00003196FE93EE933197AE81A08303C0EE81C1
:100A1000EA93D1DFB7D3279608952697A8D310E09D
:100A2000EA89FB893196EA8BFB8B3197E4912E2F73
:100A3000E03009F445C1E12F4FD2309709F007C0EB
:100A4000253209F002C011E001C038D338C1E130CD
:100A5000A0E0FA0709F019C0253209F003C02ED32F
:100A600010E02DC112E040E000E02D3209F002C09C
:100A700001E025C12B3209F002C04BE220C1203237
:100A800009F002C040E21BC105C0E230A0E0FA0755
:100A900009F008C050E013E0203309F002C00068FC
:100AA0000EC105C0E330A0E0FA0709F008C1203309
:100AB00008F404C02A3308F001C001C00AC0A52F01
:100AC000EAE0EA9FF0015E2FE22FE05305D25E0FCD
:100AD000F6C0E22F01D2E336A0E0FA0709F005C024
:100AE000F5D2EC91FAD2EAC005C0E337A0E0FA07EC
:100AF00009F006C0EBD2F9D2DAD11E2F0BC005C027
:100B0000E037A0E0FA0709F00AC0E0D2EED2D9D16E
:100B10001E2F086002600F7730E040C003C0A2D2F1
:100B200009F001C005C0E936A0E0FA0709F002C0EB
:100B3000046005C0E537A0E0FA0709F006C0E2E46A
:100B4000F0E0D7D215E011C005C0E835A0E0FA0703
:100B500009F002C0086005C0E837A0E0FA0709F014
:100B6000ADC0ECE4F0E0C5D214E002FF14C0AED298
:100B7000F1D2C2D2AA85BB8510970CF005C0EA85D8
:100B8000FB85D3D2B9D24DE2403009F402C01F5FD9
:100B900001C00B7F03C09AD2DDD2AED200FD11C0DE
:100BA000151708F00EC007FF08C002FF04C00B7F36
:100BB000242F115001C020E301C020E27FD2515008
:100BC000EFCF312F01FF1AC0303009F416C003FFF8
:100BD00008C0EE81FF8131968CD23197E4917DD2AD
:100BE00006C0AE81BF81ED91AE83BF8376D2503017
:100BF00009F401C051503150E7CF57C020E3EE81D6
:100C0000FF81329676D23297A9D2E887F987E885B4
:100C1000F985AA85BB85AE17BF0708F409C02F5F09
:100C2000A885B985EA85FB85EA1BFB0B65D2EFCF6A
:100C30002A3308F405C003FF02C0295F01C0295D03
:100C400004FF01C026C0213308F006C0A885B9857D
:100C5000119709F401C002C000610CC0531708F4D9
:100C600003C000FD01C001C019C020E207FF11C090
:100C700020E3006102FF0DC00B7F4A93EF85F889E6
:100C8000F5D1FE013F96F2D19CDE503009F401C04F
:100C9000515014D2503009F401C051503150A88540
:100CA000B985129708F401C0A9CF00FF07C05030E2
:100CB00009F404C05150E0E210D2F9CF10E0B0CEF8
:100CC0005DD264960895FF92F82E229754D2DE01E9
:100CD00028D28D01DE01169624D23CD2EA83FB8312
:100CE000DE0114961ED236D2C1D11A930A93FE01A8
:100CF0003696BCD1E0E0F0E0B9D18FDEAA81BB81AD
:100D0000E0E0EC933FD22496FF900895FFE0FA953F
:100D1000F1F70895A7B3AF70A7BBC19AC098F6DFEB
:100D2000C29AF4DFA6B3C298F1DFC29AEFDFC2988D
:100D3000A7FDF5CF0895A07FAB2BA8BBC29AE6DF35
:100D4000C298E4DF0895C198A7B3A76FA7BBB8B353
:100D5000BF70A881F0DFA881A295EDDFC19A21962E
:100D60000895C29AD3DFE6B3C298D0DFE07F08953A
:100D7000CDDFF7DFAE2FF5DFC198E295EA2B0895BE
:100D8000C9DFE881A9D0E75EFE4FE081AE2FE9819F
:100D9000A3D0B0E0EA0FFB1FB2D1B980A8802296A1
:100DA0000895B8DFE2E0ABD1B5DFECE0A8D1B2DF67
:100DB000E1E0A5D1E0E0AE2EBE2E0895EF93FF93C3
:100DC000A8816894AA3029F0E894B394DB1408F061
:100DD00005C0A394BFD0AA92D3DF2EF09BDFC09AA8
:100DE000A881AA93B0DFFF91EF91219608951A93FD
:100DF000A981BA81ED91A983BA831E2FE03009F44D
:100E000003C01A93DBDFF4CF1881239608951A9359
:100E1000E981FA813196E983FA833197E4911E2FB3
:100E2000E03009F403C01A93C9DFF2CF188123968A
:100E30000895AA27BB271197F1F70895C198A7B382
:100E4000A76FA7BBB8B3BF70A88175DFC19A219601
:100E50000895C298C098D880E881E058E0931B01BB
:100E6000E881E054E0931C014CD14BD14AD1E1DF41
:100E7000E0E2EA93E3DFDDDFE8E241D1DADFE4E05C
:100E80003ED1D7DFE5E83BD1D4DFA7B3AF70A7BB36
:100E9000C19A6EDFE53009F403C0E0E021960895C1
:100EA00039DFE6E02CD17DDFE1E021960895A991BC
:100EB000B991EE27FF276D91662311F03196FBCF94
:100EC0000895AA27BB27E991F9910590002011F018
:100ED0001196FBCFFD010895F0E00895E0E0EDBD2F
:100EE000ECBD0895A091F2000895A091F10008953D
:100EF000A091F0000895E091F700EEDFEB30A0E064
:100F0000FA070895EC30A0E0FA070895E531A0E073
:100F1000FA070895E631A0E0FA070895EF31A0E05E
:100F2000FA070895E032A0E0FA070895E932A0E058
:100F3000FA070895EA32A0E0FA070895E093F7006F
:100F40000895EBE0FBCFECE3F9CFE72DC5DFFA9393
:100F5000EA93DBC0E0E0EA930895E9EFF0E0FA936A
:100F6000EA930895E9E0F1E0FA93EA930895E091B5
:100F7000F700B2DFE130A0E0FA070895FA93EA93B0
:100F800080E0A1DE24960895E8E7F0E0FA93EA9382
:100F90000895E4E6CED0AE2FEAE0D9D0E05DFF2799
:100FA00066277727DFD00895EAE0C3D0AE2FEAE0C6
:100FB000CED0E05DFF2766277727D4D00895EAE0FA
:100FC000C6D0E05DFF2766277727CCD08CE07BDE9C
:100FD00060960895EAE7F0E0FA93EA930895EAE06C
:100FE000B6D0E05DFF2766277727BCD088E06BDEB0
:100FF0002C960895EBEFF0E0FA93EA9379DFD4CFE3
:1010000077DFEAE0A4D0E05DFF2766277727AAD044
:101010006CDFCACF6ADFEAE09AD0E05DFF2766277F
:101020007727A0D05FDFC0CF5DDFEAE090D0E05D42
:10103000FF276627772796D0E091F400FF276627E1
:10104000772790D0E091F500FF27662777278AD091
:10105000E091F600FF276627772784D084E233DE0D
:10106000A8960895E436A0E0FA070895FA93EA9363
:101070000895D898D998DA98DB98DC98DD98DE98AE
:10108000DF980895ECE3E0300895E6E4E030089559
:10109000E0E5E0300895E4E6E03008951DDFA0913A
:1010A000F800B0E0EA17FB070895D89AD99ADA9ABF
:1010B0000895DB9AE62D10DFD9DF27C02A93EF854C
:1010C000F889D4DFFE013F96D1DF7BCCA889B989AE
:1010D0001497A88BB98B14960895EA93EF85F88935
:1010E000C5DFFE013F96C2DF6CCC34D0EE83FF83B8
:1010F000BDCFEE83FF830895EA87FB870895EA93C7
:1011000022CE97DEE0E3EA9399CEE991F991309609
:1011100039F081EA97E00197F1F7A8953197C9F77F
:1011200008950024AF0DB01D0895F195E195F040AC
:101130000895002498E0AA0F001C0E1A10F40E0E59
:1011400001C0A1609A95B9F7EA2FA02D0895F1DFAB
:10115000EA2F0895ED91FC91119708950590F4916F
:10116000E02D08957A936A93FA93EA9308955A9337
:101170004A933A932A931A930A9308955D814C8176
:101180003B812A8119810881089509911991089557
:00000001FF
