:0A000000CCC0FECFFDCFFCCFFBCF3C
:10000A00FACF18C1F8CFF7CFF6CFF5CFF0C0F3CFBC
:10001A00F2CFF1CFF0CFEFCFEECFEDCFECCFEBCFEA
:10002A0073004B006900410004001E000A00010031
:10003A000100C800E80364001027E80364000A000E
:10004A000100001000011000010080C000004B6F89
:10005A00BEBFB8BBC4BDC700762E322E3020727523
:10006A00004D61BA632054207061B76FB47065B3F4
:10007A006100256325632563004DB8BD20542070B7
:10008A0061B76FB47065B361004D61BA63205420E3
:10009A007061B26FBFC3004DB8BD2054207061B209
:1000AA006FBFC30042702E207061B26FBFC32C2095
:1000BA00C06163C30042702E207061B26FBFC32C4F
:1000CA0020BCB8BD2E0042702E20E3C3BC2C20C039
:1000DA006163C30042702E20E3C3BC2C20BCB8BDB0
:1000EA0079BFC300202020205041A44FA15045428F
:1000FA0000256325633A256325633A256325632032
:10010A00543D2563256325632043002020202020B9
:10011A005041A04F5441002020202042AE54B1A3A8
:10012A004B410020202020202043544FA8007777FD
:10013A00772E7878782E756100000100E8002A0091
:10014A000100E9002C000100EA002E000100EB008A
:10015A0030000100EC0032000100ED003400010023
:10016A00EF0036000100F70038000100F8003A00FD
:10017A00010007003C00020008003E0001000600E2
:10018A00400002001901540002001D01560000003F
:10019A00F894EE27ECBBF1E0FBBFEBBFE5BFF8E15B
:1001AA00F1BDE1BD8DE0A2E0BB27ED938A95E9F7A9
:1001BA0080E092E0A0E6ED930197E9F7E4E4F1E04C
:1001CA0085919591009761F0A591B591059015904B
:1001DA00BF01F00105900D920197E1F7FB01F0CF05
:1001EA00EFE5EDBFE2E0EEBFC0EED0E03FC3EA9339
:1001FA00FA93EFB7EA93B7D6F8941BB10CB1E12F93
:10020A00EC7189F4E52D539480D5E052FF4F0083B9
:10021A00E8E0E51509F455244394E8E0E41519F4F7
:10022A004424689420F87894A8D6E991EFBFF9910C
:10023A00E9911895AA93EA93EFB7EA93F89467D5E8
:10024A00E091F200EF5FE093F200E15064D5AC3345
:10025A0041F4E091F100EF5FE093F100E0E0E09318
:10026A00F2005CD5AC3341F4E091F000EF5FE0932B
:10027A00F000E0E0E093F10054D5A83119F4E0E091
:10028A00E093F0007894E991EFBFE991A99118956C
:10029A004BD531F4E091E800EF5FE093E80037C016
:1002AA00EC3031F4E091EA00EF5FE093EA002FC00E
:1002BA00E53131F4E091E900EF5FE093E90027C00E
:1002CA00E63131F4E091EB00EF5FE093EB001FC001
:1002DA00EF3131F4E091EC00EF5FE093EC0017C0EE
:1002EA00E03231F4E091ED00EF5FE093ED000FC0F2
:1002FA00E93231F4E091EE00EF5FE093EE0007C0DF
:10030A00EA3229F4E091EF00EF5FE093EF000895FD
:10031A000BD531F4E091E800E150E093E80037C0F2
:10032A00EC3031F4E091EA00E150E093EA002FC0AA
:10033A00E53131F4E091E900E150E093E90027C0AA
:10034A00E63131F4E091EB00E150E093EB001FC09D
:10035A00EF3131F4E091EC00E150E093EC0017C08A
:10036A00E03231F4E091ED00E150E093ED000FC08E
:10037A00E93231F4E091EE00E150E093EE0007C07B
:10038A00EA3229F4E091EF00E150E093EF0008959A
:10039A00CBD419F4ECE0CCD421C0EC3019F4E5E16B
:1003AA00C7D41CC0E53119F4E6E1C2D417C0E6315E
:1003BA0019F4EFE1BDD412C0EF3119F4E0E2B8D478
:1003CA000DC0E03219F4E9E2B3D408C0E93219F4F5
:1003DA00EAE2AED403C0EA3209F4ADD40895A4D453
:1003EA0019F4EAE2A5D421C0EC3011F4A4D41DC05A
:1003FA00E53119F4ECE09CD418C0E63119F4E5E1D2
:10040A0097D413C0EF3119F4E6E192D40EC0E0326A
:10041A0019F4EFE18DD409C0E93219F4E0E288D485
:10042A0004C0EA3211F4E9E283D408957DD411F4C8
:10043A0084D41BC0EC3011F480D417C0E53111F418
:10044A007CD413C0E63111F478D40FC0EF3111F423
:10045A0074D40BC0E03211F470D407C0E93211F43D
:10046A006CD403C0EA3209F468D4089564D4E0E095
:10047A00E093F000E093F100E093F2000895989978
:10048A0002C05DD405DF999902C059D4A8DF9A99B0
:10049A0002C055D43DDF9B9902C051D479DF9C99A3
:1004AA0002C04DD4C3DF9D9902C049D4DFDF08954D
:1004BA0097D34AD449D487D34AD4B7D345D4E1E0B1
:1004CA00EA9381D349D4B1D30895E091F700E1309A
:1004DA0059F43DD4E8E5F0E044D43ED4E2E6F0E055
:1004EA0040D49A928A92BBC0EB3081F430D4EBE6C6
:1004FA00F0E037D431D43BD4A091E8003DD4A091A8
:10050A00E80045D4A091E8004DD4AAC0EC3081F4AB
:10051A001ED4E3E8F0E025D41FD429D4A091EA0040
:10052A002BD4A091EA0033D4A091EA003BD498C01E
:10053A00E53181F40CD4E3E9F0E013D40DD417D4F7
:10054A00A091E90019D4A091E90021D4A091E90071
:10055A0029D486C0E63181F4FAD3E1EAF0E001D485
:10056A00FBD305D4A091EB0007D4A091EB000FD4E4
:10057A00A091EB0017D474C0EF3169F4E8D3EEEA26
:10058A00F0E0EFD3E9D319D4A091EC0000D4A09104
:10059A00EC0018D465C0E03269F4D9D3EFEBF0E08F
:1005AA00E0D3DAD30AD4A091ED00F1D3A091ED0003
:1005BA0009D456C0E93269F4CAD3E0EDF0E0D1D3E8
:1005CA00CBD3FBD3A091EE00E2D3A091EE00FAD3F5
:1005DA0047C0EA3269F4BBD3EEEDF0E0C2D3BCD334
:1005EA00ECD3A091EF00D3D3A091EF00EBD338C0A6
:1005FA00EC3351F4ACD3EEEEF0E0B3D3ADD3EDD39C
:10060A00F2D3FBD304D42CC0E63451F4A0D3E5E1F1
:10061A00F1E0A7D3A1D3E1D3E6D3EFD3F8D320C037
:10062A00E03551F494D3E1E2F1E09BD395D3D5D3ED
:10063A00DAD3E3D3ECD314C0E43651F488D3EDE231
:10064A00F1E08FD389D3C9D3CED3D7D3E0D308C0AF
:10065A00E8E3F1E0FAD3F7D2EAE0F0E0F6D34DD4DA
:10066A000895E091F700E13009F4CDC0EB3079F458
:10067A00EFD341F4F0D331F4F1D321F4F2D311F4EE
:10068A00E0E001C0E1E0F0D309F4F2D3C1C0EC30FC
:10069A0079F4DED341F4DFD331F4E0D321F4E1D3AA
:1006AA0011F4E0E001C0E1E0DFD309F4E1D3B0C026
:1006BA00E53179F4CDD341F4CED331F4CFD321F45B
:1006CA00D0D311F4E0E001C0E1E0CED309F4D0D3F5
:1006DA009FC0E63179F4BCD341F4BDD331F4BED323
:1006EA0021F4BFD311F4E0E001C0E1E0BDD309F485
:1006FA00BFD38EC0EF3179F4ABD341F4ACD331F42C
:10070A00ADD321F4AED311F4E0E001C0E1E0ACD303
:10071A0009F4AED37DC0E03279F49AD341F49BD385
:10072A0031F49CD321F49DD311F4E0E001C0E1E05F
:10073A009BD309F49DD36CC0E93279F489D341F48F
:10074A008AD331F48BD321F48CD311F4E0E001C0C5
:10075A00E1E08AD309F48CD35BC0EA3279F478D326
:10076A0041F479D331F47AD321F47BD311F4E0E064
:10077A0001C0E1E079D309F47BD34AC0EC3351F5E7
:10078A00EBE0E030B1F4ECE0E03099F4E5E1E030A0
:10079A0081F4E6E1E03069F4EFE1E03051F4E03071
:1007AA0041F4E9E2E03029F4EAE2E03011F4E0E071
:1007BA0001C0E1E059D321F464D367D36BD3DB984A
:1007CA00E091E800A091F300AE1708F463D359D37F
:1007DA00DB981EC0E63419F454D3DD9A19C0E0350B
:1007EA0019F44FD3DD9A14C0E43669F031D341F4D9
:1007FA0032D331F433D321F434D311F4E0E001C01D
:10080A00E1E032D329F4D898D998DA98DB983DD325
:10081A00E091F700E093F8000895E0E0EBBBEFEF1A
:10082A00EABBE0E0E8BBE7BBEFEFE5BBE0E0E4BB37
:10083A00EFBDE5E0EEBD6BD2E0E0E7BDE6BDEEE17F
:10084A00EBBDE5E8EABDE0E0E9BDE8BDE0E1E9BF0E
:10085A00E0E0EBB9E8E1EAB9E6E8E0BDE0E0E0BDF6
:10086A00ECE0E9B9E0E1EA930FD20895D6DFE1E0DE
:10087A005FD22BDE1DDE9A928A923FD35CD225DEAE
:10088A0017DE7894FCDDEDDE20DE12DEFBCFFFCF33
:10089A005F9BFECFECB108955D9BFECFE881ECB97A
:1008AA002196089560D3AC81BD814CD33097D1F0A5
:1008BA00AA81BB8147D38F01309749F00230E0E02B
:1008CA001E0778F0F80131978F01ED93FC93AC8104
:1008DA00BD81ED91FD913196FE93EE933197AE81F4
:1008EA00A08303C0EE81EA93D7DF44D32796089505
:1008FA00269735D310E0EA89FB893196EA8BFB8B80
:10090A003197E4912E2FE03009F4FDC0E12FE03059
:10091A0031F4253211F411E001C0C1D2F3C0E13043
:10092A00A1F4253211F4BBD2ECC012E040E000E0A1
:10093A002D3211F401E0E6C02B3211F44BE2E2C091
:10094A00203211F440E2DEC002C0E23039F450E055
:10095A0013E0203311F40068D5C003C0E33009F076
:10096A00D1C0203310F02A3308F009C0A52FEAE0DD
:10097A00EA9FF0015E2FE22FE0535E0FC3C0E22F21
:10098A00E33621F494D2EC9199D2BBC0E33729F42F
:10099A008ED29CD2A5D11E2F07C0E03749F487D248
:1009AA0095D2A8D11E2F086002600F7730E02FC0C1
:1009BA00E43611F0E93611F4046002C0E53729F48F
:1009CA00E2E4F0E087D215E00BC0E83511F40860E4
:1009DA0003C0E83709F095C0ECE4F0E07BD214E0FC
:1009EA0002FF12C064D2AED278D2AA85BB85109714
:1009FA002CF4EA85FB8591D270D24DE2403011F099
:100A0A001F5F01C00B7F03C052D29CD266D200FD89
:100A1A0010C0151770F407FF08C002FF04C00B7F4F
:100A2A00242F115001C020E301C020E238D25150D6
:100A3A00F0CF312F01FF18C03030A9F003FF07C0F3
:100A4A00EE81FF81319646D23197E49105C0AE819D
:100A5A00BF81ED91AE83BF83EA9342D2503009F051
:100A6A0051503150E9CF45C020E3EE81FF813296E3
:100A7A0031D232976BD2E887F987E885F985AA855A
:100A8A00BB85AE17BF0748F02F5FA885B985EA85F1
:100A9A00FB85EA1BFB0B21D2F0CF2A3328F003FF98
:100AAA0002C0295F01C0295D04FD19C0213320F469
:100ABA00A885B985119709F409C0531710F000FFEA
:100ACA0001C011C020E207FF0AC020E3006102FF53
:100ADA0006C00B7F4A9304D2503009F05150DFD13F
:100AEA00503009F051503150A885B985129708F055
:100AFA00BBCF00FF06C0503021F05150E0E2DED1FA
:100B0A00FACF10E0F8CE32D264960895FF92F82E0A
:100B1A00229729D2DE01FDD18D01DE011696F9D187
:100B2A0011D2EA83FB83DE011496F3D10BD28DD165
:100B3A001A930A93FE01369688D1E0E0F0E085D157
:100B4A00D7DEAA81BB81E0E0EC9314D22496FF9011
:100B5A000895FFE0FA95F1F70895A7B3AF70A7BB20
:100B6A00C19AC098F6DFC29AF4DFA6B3C298F1DF41
:100B7A00C29AEFDFC298A7FDF5CF0895A07FAB2BED
:100B8A00A8BBC29AE6DFC298E4DF0895C198A7B36A
:100B9A00A76FA7BBB8B3BF70A881F0DFA881A295E1
:100BAA00EDDFC19A21960895C29AD3DFE6B3C298BF
:100BBA00D0DFE07F0895CDDFF7DFAE2FF5DFC198F4
:100BCA00E295EA2B0895C9DFE8819FD0E75EFE4FE0
:100BDA00E081A981EA0F8BD1B980A8802296089575
:100BEA00BCDFE2E084D1B9DFECE081D1B6DFE1E03D
:100BFA007ED1E0E0AE2EBE2E0895EF93FF93A8813A
:100C0A006894AA3021F0E894B394DB1428F4A394EE
:100C1A009BD0AA92D8DF2EF0A0DFC09AA881AA930F
:100C2A00B5DFFF91EF91219608951A93A981BA81B0
:100C3A00ED91A983BA831E2FE03019F01A93DDDFF4
:100C4A00F5CF18810FC01A93E981FA813196E983A9
:100C5A00FA833197E4911E2FE03019F01A93CDDF11
:100C6A00F3CF188123960895AA27BB271197F1F786
:100C7A000895C198A7B3A76FA7BBB8B3BF70A881DF
:100C8A007DDFC19A21960895C298C098D880E881DC
:100C9A00E058E0931B01E881E054E0931C0129D15C
:100CAA0028D127D1E1DFE0E2EA93E3DFDDDFE8E202
:100CBA001ED1DADFE4E01BD1D7DFE5E818D1D4DFB3
:100CCA00A7B3AF70A7BBC19A76DFE53011F0E0E0B9
:100CDA0005C043DFE6E00BD183DFE1E0219608950A
:100CEA00A991B991EE27FF276D91662311F03196EC
:100CFA00FBCF0895AA27BB27E991F9910590002017
:100D0A0011F01196FBCFFD010895F0E00895E0E09F
:100D1A00EDBDECBD0895A091F2000895A091F100F7
:100D2A000895A091F0000895E091F700EB3008953E
:100D3A00E093F7000895EBE0FBCFECE3F9CFE72D62
:100D4A00E4DFFA93EA93D9C0E0E0EA930895E9EF81
:100D5A00F0E0FA93EA930895E9E0F1E0FA93EA936E
:100D6A000895FA93EA9380E0D1DE24960895ECE799
:100D7A00F0E0FA93EA930895E4E6D3D0AE2FEAE0DE
:100D8A00DED0E05DFF2766277727E4D00895EAE002
:100D9A00C8D0AE2FEAE0D3D0E05DFF2766277727D9
:100DAA00D9D00895EAE0CBD0E05DFF276627772700
:100DBA00D1D08CE0ABDE60960895EEE7F0E0FA93CE
:100DCA00EA930895EAE0BBD0E05DFF27662777271C
:100DDA00C1D088E09BDE2C960895EBEFF0E0FA9301
:100DEA00EA939FDFD4CF9DDFEAE0A9D0E05DFF2739
:100DFA0066277727AFD092DFCACF90DFEAE09FD08D
:100E0A00E05DFF2766277727A5D085DFC0CF83DF80
:100E1A00EAE095D0E05DFF27662777279BD0E0912F
:100E2A00F400FF276627772795D0E091F500FF2782
:100E3A00662777278FD0E091F600FF276627772766
:100E4A0089D084E263DEA8960895FA93EA93089516
:100E5A00ECE3E0300895E6E4E0300895E0E5E030C0
:100E6A000895E4E6E0300895A091F800EA1708959D
:100E7A00D898D998DA98DB98DC98DD98DE98DF98CC
:100E8A000895D89AD99ADA9A0895DC98DD98DE9866
:100E9A00DF980895DB9AE62D38DFD7DF2EC02A9334
:100EAA00EF85F889D2DFFE013F96CFDFFBCCA88918
:100EBA00B9891497A88BB98B14960895EA93EF858C
:100ECA00F889C3DFFE013F96C0DFECCC3BD0EE834E
:100EDA00FF83BBCFEE83FF830895EA87FB870895DC
:100EEA00EF85F889B2DFFE013F96AFDFDBCCEA93EC
:100EFA004DCEBADEE0E3EA93BCCEE991F9913096A1
:100F0A0039F081EA97E00197F1F7A8953197C9F787
:100F1A0008950024AF0DB01D0895F195E195F040B4
:100F2A000895002498E0AA0F001C0E1A10F40E0E61
:100F3A0001C0A1609A95B9F7EA2FA02D0895F1DFB3
:100F4A00EA2F0895ED91FC91119708950590F49177
:100F5A00E02D08957A936A93FA93EA9308955A933F
:100F6A004A933A932A931A930A9308955D814C817E
:100F7A003B812A811981088108950991199108955F
:00000001FF
