:0A000000BCC0FECFFDCFFCCFFBCF4C
:10000A00FACF0BC1F8CFF7CFF6CFF5CFE0C0F3CFD9
:10001A00F2CFF1CFF0CFEFCFEECFEDCFECCFEBCFEA
:10002A001027E80364000A00010000100001100014
:10003A000100000073004B006900410004001E002B
:10004A000A000100010064C8E8034B6F7074696C10
:10005A006E796100762E312E30004D617820542061
:10006A0072617A6F6772657661002563256325631D
:10007A00004D696E20542072617A6F6772657661ED
:10008A00004D61782054207261626F746961004D7D
:10009A00696E2054207261626F74690054696D65DB
:1000AA00207261626F74612C2063680054696D6507
:1000BA00207261626F74612C206D696E0054696DE3
:1000CA006520736D6F6B652C2063680054696D65DC
:1000DA0020736D6F6B652C206D696E0052415A4F0B
:1000EA0047524556D0E0E7EEE3F0E5E20025632506
:1000FA00633A256325633A2563256320543D2563C6
:10010A00256325632043005241424F544100534D19
:10011A004F4B450053544F50007777772E787878B5
:10012A002E75610080C0010002003C000100E80059
:10013A003E000100E90040000100EA00420001001F
:10014A00EB0044000100EC0046000100ED0048000D
:10015A000100EF004A000100F7004C000100F8001E
:10016A004E00040006005000020019012E01000092
:10017A00F894EE27ECBBF1E0FBBFEBBFE5BFF8E17B
:10018A00F1BDE1BD8DE0A2E0BB27ED938A95E9F7C9
:10019A0080E092E0A0E6ED930197E9F7E0E3F1E071
:1001AA0085919591009761F0A591B591059015906B
:1001BA00BF01F00105900D920197E1F7FB01F0CF25
:1001CA00EFE5EDBFE2E0EEBFC0EED0E0CDC3EA93CB
:1001DA00FA93EFB7EA93F7D7F8941BB10CB1E12F72
:1001EA00EC7109F013C0E52D539455D6E052FF4F38
:1001FA000083E8E0E51509F001C055244394E8E0DE
:10020A00E41509F003C04424689420F87894E5D7EB
:10021A00E991EFBFF991E9911895AA93EA93EFB79B
:10022A00EA93F8943AD6E091F200EF5FE093F20095
:10023A0038D6AC3309F008C0E091F100EF5FE093E3
:10024A00F100E0E0E093F2002FD6AC3309F008C0E9
:10025A00E091F000EF5FE093F000E0E0E093F1005E
:10026A0026D6A83109F003C0E0E0E093F0007894C4
:10027A00E991EFBFE991A99118951CD609F006C03A
:10028A00E091E800EF5FE093E8003FC01AD609F07A
:10029A0006C0E091EA00EF5FE093EA0036C015D6A7
:1002AA0009F006C0E091E900EF5FE093E9002DC094
:1002BA0010D609F006C0E091EB00EF5FE093EB0087
:1002CA0024C00BD609F006C0E091EC00EF5FE09382
:1002DA00EC001BC006D609F006C0E091ED00EF5F06
:1002EA00E093ED0012C001D609F006C0E091EE00DD
:1002FA00EF5FE093EE0009C0FCD509F006C0E0917B
:10030A00EF00EF5FE093EF0000C00895D3D509F046
:10031A0006C0E091E800E150E093E8003FC0D1D583
:10032A0009F006C0E091EA00E150E093EA0036C025
:10033A00CCD509F006C0E091E900E150E093E9006C
:10034A002DC0C7D509F006C0E091EB00E150E0935B
:10035A00EB0024C0C2D509F006C0E091EC00E150E0
:10036A00E093EC001BC0BDD509F006C0E091ED009A
:10037A00E150E093ED0012C0B8D509F006C0E09153
:10038A00EE00E150E093EE0009C0B3D509F006C0D3
:10039A00E091EF00E150E093EF0000C008958AD5A4
:1003AA0009F003C0ECE0A9D529C08BD509F003C038
:1003BA00E5E1A3D523C089D509F003C0E6E19DD5BF
:1003CA001DC087D509F003C0EFE197D517C085D5C1
:1003DA0009F003C0E0E291D511C083D509F003C04A
:1003EA00E9E28BD50BC081D509F003C0EAE285D5D5
:1003FA0005C07FD509F002C083D500C008955AD53B
:10040A0009F003C0EAE279D529C05BD509F002C038
:10041A0077D524C05AD509F003C0ECE06ED51EC0CA
:10042A0058D509F003C0E5E168D518C056D509F0DA
:10043A0003C0E6E162D512C054D509F003C0EFE16A
:10044A005CD50CC052D509F003C0E0E256D506C00F
:10045A0050D509F003C0E9E250D500C008952AD565
:10046A0009F002C04FD523C02CD509F002C04AD5E5
:10047A001EC02BD509F002C045D519C02AD509F0EE
:10048A0002C040D514C029D509F002C03BD50FC01F
:10049A0028D509F002C036D50AC027D509F002C00E
:1004AA0031D505C026D509F002C02CD500C0089563
:1004BA0027D5E0E0E093F000E093F100E093F2004A
:1004CA000895989902C020D5D8DE999902C01CD502
:1004DA0096DF9A9902C018D519DF9B9902C014D5E4
:1004EA005EDF9C9902C010D5BADF9D9902C00CD577
:1004FA00DFDF089535D40DD50CD525D40DD556D4C6
:10050A0008D5E1E0EA931FD40CD550D408950ED54E
:10051A0009F00CC001D5E4E5F0E00FD502D5EEE50F
:10052A00F0E00BD59A928A92F0D5CAC0EB30A0E0DF
:10053A00FA0709F00FC0F0D4E4E6F0E0FED4F1D4F3
:10054A0002D506D509D504D512D514D5A091E8004F
:10055A0019D5B6C0B6D409F00EC0DED4EBE7F0E088
:10056A00ECD4DFD4F0D418D5F7D416D519D5A09188
:10057A00EA0008D5A5C0A9D409F00EC0CDD4EBE88D
:10058A00F0E0DBD4CED4DFD40DD5E6D40BD508D534
:10059A00A091E900F7D494C09CD409F00EC0BCD451
:1005AA00E9E9F0E0CAD4BDD4CED400D5D5D4FED47E
:1005BA00F7D4A091EB00E6D483C08FD409F00DC024
:1005CA00ABD4E6EAF0E0B9D4ACD4F4D4A091EC0010
:1005DA00F6D4A091EC00F5D473C083D409F00DC011
:1005EA009BD4E6EBF0E0A9D49CD4E4D4A091ED002E
:1005FA00E6D4A091ED00E5D463C077D409F00DC02C
:10060A008BD4E7ECF0E099D48CD4D4D4A091EE004A
:10061A00D6D4A091EE00D5D453C06BD409F00DC046
:10062A007BD4E6EDF0E089D47CD4C4D4A091EF0069
:10063A00C6D4A091EF00C5D443C0EC33A0E0FA07BA
:10064A0009F00AC069D4E6EEF0E077D46AD4C3D4DC
:10065A00C8D4D0D4D8D434C0E634A0E0FA0709F01C
:10066A000AC05AD4E1E1F1E068D45BD4B4D4B9D475
:10067A00C1D4C9D425C0E035A0E0FA0709F00AC000
:10068A004BD4E8E1F1E059D44CD4A5D4AAD4B2D4DD
:10069A00BAD416C0E436A0E0FA0709F00AC03CD47E
:1006AA00EEE1F1E04AD43DD496D49BD4A3D4ABD4A2
:1006BA0007C0E3E2F1E0C4D489D359D4C1D425D523
:1006CA00089534D409F002C0BED420C1EB30A0E0B2
:1006DA00FA0709F014C0C0D409F00BC0C0D409F05D
:1006EA0008C0C0D409F005C0C0D409F002C0E0E0D7
:1006FA0001C0E1E0BDD409F001C0A5D407C1E1D32E
:10070A0009F014C0A9D409F00BC0A9D409F008C093
:10071A00A9D409F005C0A9D409F002C0E0E001C0DB
:10072A00E1E0A6D409F001C08ED4F0C0CED309F01E
:10073A0014C092D409F00BC092D409F008C092D424
:10074A0009F005C092D409F002C0E0E001C0E1E07E
:10075A008FD409F001C077D4D9C0BBD309F014C033
:10076A007BD409F00BC07BD409F008C07BD409F014
:10077A0005C07BD409F002C0E0E001C0E1E078D412
:10078A0009F001C060D4C2C0A8D309F014C064D46F
:10079A0009F00BC064D409F008C064D409F005C09C
:1007AA0064D409F002C0E0E001C0E1E061D409F0DC
:1007BA0001C049D4ABC095D309F014C04DD409F097
:1007CA000BC04DD409F008C04DD409F005C04DD472
:1007DA0009F002C0E0E001C0E1E04AD409F001C03A
:1007EA0032D494C082D309F014C036D409F00BC0B5
:1007FA0036D409F008C036D409F005C036D409F059
:10080A0002C0E0E001C0E1E033D409F001C01BD42A
:10081A007DC06FD309F014C01FD409F00BC01FD4D8
:10082A0009F008C01FD409F005C01FD409F002C09E
:10083A00E0E001C0E1E01CD409F001C004D466C0C4
:10084A00EC33A0E0FA0709F037C0EBE0E03009F03A
:10085A001DC0ECE0E03009F019C0E5E1E03009F034
:10086A0015C0E6E1E03009F011C0EFE1E03009F02F
:10087A000DC0E03009F00AC0E9E2E03009F006C034
:10088A00EAE2E03009F002C0E0E001C0E1E0F0D3C2
:10089A0009F007C0F6D3DC98DD98DE98DF98F5D327
:1008AA00DB98E091E800A091F300AE1708F001C0D0
:1008BA00ECD3E7D3DB982AC0E634A0E0FA0709F0C4
:1008CA0003C0DFD3DD9A22C0E035A0E0FA0709F0C1
:1008DA0003C0D7D3DD9A1AC0E436A0E0FA0709F0BC
:1008EA0002C0B1D313C0B8D309F00BC0B8D309F012
:1008FA0008C0B8D309F005C0B8D309F002C0E0E0D7
:10090A0001C0E1E0B5D309F001C09DD3E091F70041
:10091A00E093F8000895E0E0EBBBEFEFEABBE0E01C
:10092A00E8BBE7BBEFEFE5BBE0E0E4BBEFBDE5E02A
:10093A00EEBDB3D2E0E0E7BDE6BDEEE1EBBDE5E832
:10094A00EABDE0E0E9BDE8BDE0E1E9BFE0E0EBB91E
:10095A00E8E1EAB9E6E8E0BDE0E0E0BDECE0E9B9EB
:10096A00E0E1EA9355D20895D6DFE1E0C6D2CFDDC1
:10097A00C1DD9A928A92C9D3C3D2C9DDBBDD78940C
:10098A00A0DD9FDEC4DDB6DDFBCFFFCF1CD482D352
:10099A00129608D4309709F422C07CD37ED38F01F3
:1009AA00309709F001C00DC00230E0E01E0708F4DC
:1009BA0015C0F80131978F01AA81BB811496ED9376
:1009CA00FC9368D312966CD33197AC81A08362D31F
:1009DA00E9D3FF230AF402C05DD362D305C05AD318
:1009EA00EFEFFFEFED93FC93F5D325960895269745
:1009FA00E6D310E0AC85BD85E0E0F0E0ED93FC9332
:100A0A00EA89FB893196EA8BFB8B3197E4912E2F89
:100A1A00E03009F429C1E12FE03009F007C025329E
:100A2A0009F002C011E001C041D31DC1E13009F053
:100A3A0019C0253209F003C039D310E014C112E0FD
:100A4A0040E000E02D3209F002C001E00CC12B3277
:100A5A0009F002C04BE207C1203209F002C040E2AD
:100A6A0002C103C0E23009F008C050E013E02033AD
:100A7A0009F002C00068F7C003C0E33009F0F3C010
:100A8A00203308F404C02A3308F001C001C007C0AB
:100A9A00AAE05A9F502DE22FE0535E0FE4C0E22FE6
:100AAA00E33609F008C00AD30CD308D3A481AA9369
:100ABA000CD3D8C003C0E33709F007C00DD30ED357
:100ACA0010D3D4D11E2F0AC003C0E03709F00BC0DF
:100ADA0003D304D306D3D4D11E2F086002600F7744
:100AEA0030E037C003C0E43609F001C003C0E9367C
:100AFA0009F002C0046003C0E53709F006C0EAE263
:100B0A00F0E0F2D215E00DC003C0E83509F002C0EA
:100B1A00086003C0E83709F0A5C0E4E3F0E0E4D2D6
:100B2A0014E002FF13C0D8D2D9D2E1D2AB85AA23EE
:100B3A000AF005C0EA85FB85F8D2D9D24DE24030E9
:100B4A0009F402C01F5F01C00B7F03C0C5D2C6D221
:100B5A00CED200FD11C0151708F00EC007FF08C05D
:100B6A0002FF04C00B7F242F115001C020E301C0F3
:100B7A0020E29CD25150EFCF312F01FF17C0303005
:100B8A0009F413C003FF05C0EE81FF812591ACD2A1
:100B9A0005C0AE81BF812D91AE83BF8387D250300D
:100BAA0009F401C051503150EACF52C020E3EE811E
:100BBA00FF81FCD2E887F987EE81FF81329694D2D1
:100BCA00E885F985AA85BB85AE17BF0708F409C071
:100BDA002F5FA885B985EA85FB85EA1BFB0B87D2BF
:100BEA00EFCF2A3308F405C003FF02C0295F01C012
:100BFA00295D04FF01C020C0213308F006C0A88582
:100C0A00B985119709F401C002C000610CC05317DD
:100C1A0008F403C000FD01C001C013C020E207FFB1
:100C2A000BC020E3006102FF07C00B7F4A934DD23D
:100C3A00503009F401C0515039D2503009F401C082
:100C4A0051503150A885B985129708F401C0AECF2A
:100C5A0000FF08C0503009F405C05150E0E2EA93A1
:100C6A0034D2F8CF10E0CCCEAC85BD859BD2AED2C3
:100C7A0064960895FF92F82E2697A3D23BD2309716
:100C8A0009F006C0EFEFFFEFA3D22A96FF9008956E
:100C9A00DE01169646D28D012DD226D2E0E0E887F3
:100CAA00E987DE011A963DD27DD2CAD11A930A93F8
:100CBA00EBECF4E0C5D1FE013A96C2D198DE9F0171
:100CCA00AE81BF81E0E0EC93F90182D22A96FF90CF
:100CDA000895FFE0FA95F1F70895A7B3AF70A7BB9F
:100CEA00C19AC098F6DFC29AF4DFA6B3C298F1DFC0
:100CFA00C29AEFDFC298A7FDF5CF0895A07FAB2B6C
:100D0A00A8BBC29AE6DFC298E4DF0895C198A7B3E8
:100D1A00A76FA7BBB8B3BF70A881F0DFA881A2955F
:100D2A00EDDFC19A21960895C29AD3DFE6B3C2983D
:100D3A00D0DFE07F0895CDDFF7DFAE2FF5DFC19872
:100D4A00E295EA2B0895C9DFE881A5D0E75EFE4F58
:100D5A00E081A981EA0FD3D1B980A88022960895AB
:100D6A00BCDFE2E0CCD1B9DFECE0C9D1B6DFE1E02B
:100D7A00C6D1E0E0AE2EBE2E0895EF93FF93A88170
:100D8A006894AA3021F0E894BD1408F405C0A3942D
:100D9A00C0D0AA92D8DF36F0B3949FDFC09AA88158
:100DAA00AA93B4DFFF91EF91219608951A93A9812E
:100DBA00BA81ED91A983BA831E2FE03009F403C0EA
:100DCA001A93DBDFF4CF1881239608951A93E981E9
:100DDA00FA813196E983FA833197E4911E2FE03044
:100DEA0009F403C01A93C9DFF2CF18812396089534
:100DFA00AA27BB271197F1F70895C198A7B3A76F40
:100E0A00A7BBB8B3BF70A88179DFC19A21960895AC
:100E1A00C298C098D880E881E058E0931B01E88125
:100E2A00E054E0931C016DD16CD16BD1E1DFE0E2BB
:100E3A00EA93E3DFDDDFE8E262D1DADFE4E05FD103
:100E4A00D7DFE5E85CD1D4DFA7B3AF70A7BBC19AFF
:100E5A0072DFE53009F403C0E0E0219608953DDF32
:100E6A00E6E04DD17DDFE1E021960895A991B9919F
:100E7A00EE27FF276D91662311F03196FBCF089577
:100E8A00AA27BB27E991F9910590002011F0119644
:100E9A00FBCFFD010895F0E00895E0E0EDBDECBD63
:100EAA000895A091F2000895A091F1000895A091EB
:100EBA00F0000895E091F700EEDFEB30A0E0FA07CA
:100ECA000895EC30A0E0FA070895E531A0E0FA07AA
:100EDA000895E631A0E0FA070895EF31A0E0FA0795
:100EEA000895E032A0E0FA070895E932A0E0FA078F
:100EFA000895EA32A0E0FA070895E093F70008950A
:100F0A00EBE0FBCFECE3F9CFE72DC5DFFA93EA93E9
:100F1A00FCC0E0E0EA930895E9EFF0E0FA93EA937F
:100F2A000895E9E0F1E0FA93EA930895E091F70071
:100F3A00B2DFE130A0E0FA070895FA93EA9380E07D
:100F4A0099DE24960895E4E7F0E0FA93EA93089587
:100F5A00A091E800B0E00895E4E6F0E002D1DF01F4
:100F6A00EAE0F0E003D1F096E4D024D10895EAE073
:100F7A00F0E00895F6D0DF01FADFF8D0F096D9D084
:100F8A0019D10895BB27F3DFF1D0F096D2D012D150
:100F9A008CE070DE60960895A091EA00B0E00895B2
:100FAA00E6DFE8CFA091E900B0E00895A091EB0058
:100FBA00B0E00895E6E7F0E0FA93EA930895B0E026
:100FCA00EFCFBB27D4DFD2D0F096B3D0F3D088E0EE
:100FDA0051DE2C960895E7EFF0E0FA93EA9367DF83
:100FEA00EECF65DFBB27C3DFC1D0F096A2D0E2D037
:100FFA005BDFE5CF59DFBB27BADFB8D0F09699D0CF
:10100A00D9D04FDFDCCF4DDFBB27B1DFAFD0F096B1
:10101A0090D0D0D0E091F400FF2766277727CAD076
:10102A00E091F500FF2766277727C4D0E091F60004
:10103A00FF2766277727BED084E21CDEA89608958C
:10104A00FA93EA930895D898D998DA98DB98DC98B5
:10105A00DD98DE98DF980895ECE3E0300895E6E441
:10106A00E0300895E0E5E0300895E4E6E0300895E0
:10107A00A091F800B0E0F0E0E7FDFFEFEA17FB0708
:10108A000895D89AD99ADA9A0895DB9AE62D03DF59
:10109A00D7DF3BC0AA81BB810895149683D00895F7
:1010AA00ED91FD913196FE93EE9308952A93ED8585
:1010BA00FE85C6DFE989FA8909950895E889F989DB
:1010CA0008953497E88BF98B0895ED85FE85B8DF8E
:1010DA00E989FA8909950895F1DFF3CFA889B989D1
:1010EA00DCCFEE83FF83ACCFEE83FF830895EA87DC
:1010FA00FB870895DE011C9614D054D00895EA9314
:10110A0005CE76DEE0E3EA9378CEE991F99130965E
:10111A0039F081EA97E00197F1F7A8953197C9F775
:10112A0008950024AF0DB01D0895F195E195F040A2
:10113A0008956F2F660F660B762F089500241124E9
:10114A0090E1AA0FBB1F001C111C0E1A1F0A18F4EB
:10115A000E0E1F1E01C0A1609A9599F7FD01D001DC
:10116A00089512D0EBDF0EF4E0DF0895E894B7FF9C
:10117A0004C0A095B09511966894F7FDD6DFDEDF1E
:10118A00FD010EF4D2DF0895E894F7FF02C0CDDF27
:10119A006894B7FF06C0A095B095119600F803941D
:1011AA0000FA0895ED91FC91119708950590F49134
:1011BA00E02D08957A936A93FA93EA9308955A93DD
:1011CA004A933A932A931A930A9308955D814C811C
:1011DA003B812A81198108810895099119910895FD
:00000001FF
